{
  "_format": "hh-sol-artifact-1",
  "contractName": "TokenBoundAccount",
  "sourceName": "contracts/TokenBoundAccount.sol",
  "abi": [
    {
      "anonymous": false,
      "inputs": [
        {
          "indexed": true,
          "internalType": "address",
          "name": "target",
          "type": "address"
        },
        {
          "indexed": true,
          "internalType": "uint256",
          "name": "value",
          "type": "uint256"
        },
        {
          "indexed": false,
          "internalType": "bytes",
          "name": "data",
          "type": "bytes"
        }
      ],
      "name": "TransactionExecuted",
      "type": "event"
    },
    {
      "inputs": [],
      "name": "balance",
      "outputs": [
        {
          "internalType": "uint256",
          "name": "",
          "type": "uint256"
        }
      ],
      "stateMutability": "view",
      "type": "function"
    },
    {
      "inputs": [
        {
          "internalType": "address",
          "name": "to",
          "type": "address"
        },
        {
          "internalType": "uint256",
          "name": "value",
          "type": "uint256"
        },
        {
          "internalType": "bytes",
          "name": "data",
          "type": "bytes"
        }
      ],
      "name": "executeCall",
      "outputs": [
        {
          "internalType": "bytes",
          "name": "result",
          "type": "bytes"
        }
      ],
      "stateMutability": "payable",
      "type": "function"
    },
    {
      "inputs": [
        {
          "internalType": "bytes32",
          "name": "hash",
          "type": "bytes32"
        },
        {
          "internalType": "bytes",
          "name": "signature",
          "type": "bytes"
        }
      ],
      "name": "isValidSignature",
      "outputs": [
        {
          "internalType": "bytes4",
          "name": "magicValue",
          "type": "bytes4"
        }
      ],
      "stateMutability": "view",
      "type": "function"
    },
    {
      "inputs": [],
      "name": "nonce",
      "outputs": [
        {
          "internalType": "uint256",
          "name": "",
          "type": "uint256"
        }
      ],
      "stateMutability": "view",
      "type": "function"
    },
    {
      "inputs": [],
      "name": "owner",
      "outputs": [
        {
          "internalType": "address",
          "name": "",
          "type": "address"
        }
      ],
      "stateMutability": "view",
      "type": "function"
    },
    {
      "inputs": [
        {
          "internalType": "bytes4",
          "name": "interfaceId",
          "type": "bytes4"
        }
      ],
      "name": "supportsInterface",
      "outputs": [
        {
          "internalType": "bool",
          "name": "",
          "type": "bool"
        }
      ],
      "stateMutability": "pure",
      "type": "function"
    },
    {
      "inputs": [],
      "name": "token",
      "outputs": [
        {
          "internalType": "uint256",
          "name": "",
          "type": "uint256"
        },
        {
          "internalType": "address",
          "name": "",
          "type": "address"
        },
        {
          "internalType": "uint256",
          "name": "",
          "type": "uint256"
        }
      ],
      "stateMutability": "view",
      "type": "function"
    },
    {
      "stateMutability": "payable",
      "type": "receive"
    }
  ],
  "bytecode": "0x608060405234801561001057600080fd5b506112c3806100206000396000f3fe6080604052600436106100745760003560e01c80639e5d4c491161004e5780639e5d4c4914610125578063affed0e014610155578063b69ef8a814610180578063fc0c546a146101ab5761007b565b806301ffc9a7146100805780631626ba7e146100bd5780638da5cb5b146100fa5761007b565b3661007b57005b600080fd5b34801561008c57600080fd5b506100a760048036038101906100a29190610972565b6101d8565b6040516100b491906109ba565b60405180910390f35b3480156100c957600080fd5b506100e460048036038101906100df9190610b51565b6102aa565b6040516100f19190610bbc565b60405180910390f35b34801561010657600080fd5b5061010f6102e3565b60405161011c9190610c18565b60405180910390f35b61013f600480360381019061013a9190610cf5565b6103f4565b60405161014c9190610de8565b60405180910390f35b34801561016157600080fd5b5061016a61055c565b6040516101779190610e19565b60405180910390f35b34801561018c57600080fd5b50610195610562565b6040516101a29190610e19565b60405180910390f35b3480156101b757600080fd5b506101c061056a565b6040516101cf93929190610e34565b60405180910390f35b60007f01ffc9a7000000000000000000000000000000000000000000000000000000007bffffffffffffffffffffffffffffffffffffffffffffffffffffffff1916827bffffffffffffffffffffffffffffffffffffffffffffffffffffffff191614806102a357507f400a0398000000000000000000000000000000000000000000000000000000007bffffffffffffffffffffffffffffffffffffffffffffffffffffffff1916827bffffffffffffffffffffffffffffffffffffffffffffffffffffffff1916145b9050919050565b6000806102bf6102b86102e3565b8585610582565b905080156102d757631626ba7e60e01b9150506102dd565b60009150505b92915050565b6000806000803073ffffffffffffffffffffffffffffffffffffffff1663fc0c546a6040518163ffffffff1660e01b8152600401606060405180830381865afa158015610334573d6000803e3d6000fd5b505050506040513d601f19601f820116820180604052508101906103589190610e95565b92509250925046831461037157600093505050506103f1565b8173ffffffffffffffffffffffffffffffffffffffff16636352211e826040518263ffffffff1660e01b81526004016103aa9190610e19565b602060405180830381865afa1580156103c7573d6000803e3d6000fd5b505050506040513d601f19601f820116820180604052508101906103eb9190610ee8565b93505050505b90565b60606103fe6102e3565b73ffffffffffffffffffffffffffffffffffffffff163373ffffffffffffffffffffffffffffffffffffffff161461046b576040517f08c379a000000000000000000000000000000000000000000000000000000000815260040161046290610f72565b60405180910390fd5b600080815461047990610fc1565b91905081905550838573ffffffffffffffffffffffffffffffffffffffff167f47d99ad340f52da66535aff7e10da1ceb85a32bcbd9fa1c42314d194545e14d285856040516104c9929190611036565b60405180910390a360008573ffffffffffffffffffffffffffffffffffffffff168585856040516104fb92919061108a565b60006040518083038185875af1925050503d8060008114610538576040519150601f19603f3d011682016040523d82523d6000602084013e61053d565b606091505b5080935081925050508061055357815160208301fd5b50949350505050565b60005481565b600047905090565b6000806000610577610612565b925092509250909192565b60008060006105918585610692565b5091509150600060038111156105aa576105a96110a3565b5b8160038111156105bd576105bc6110a3565b5b1480156105f557508573ffffffffffffffffffffffffffffffffffffffff168273ffffffffffffffffffffffffffffffffffffffff16145b8061060757506106068686866106ee565b5b925050509392505050565b600080600080606067ffffffffffffffff81111561063357610632610a26565b5b6040519080825280601f01601f1916602001820160405280156106655781602001600182028036833780820191505090505b50905060ad604d60208301303c808060200190518101906106869190611110565b93509350935050909192565b600080600060418451036106d75760008060006020870151925060408701519150606087015160001a90506106c988828585610812565b9550955095505050506106e7565b60006002855160001b9250925092505b9250925092565b60008060008573ffffffffffffffffffffffffffffffffffffffff16858560405160240161071d929190611172565b604051602081830303815290604052631626ba7e60e01b6020820180517bffffffffffffffffffffffffffffffffffffffffffffffffffffffff838183161783525050505060405161076f91906111d3565b600060405180830381855afa9150503d80600081146107aa576040519150601f19603f3d011682016040523d82523d6000602084013e6107af565b606091505b50915091508180156107c357506020815110155b80156108075750631626ba7e60e01b7bffffffffffffffffffffffffffffffffffffffffffffffffffffffff19168180602001905181019061080591906111ff565b145b925050509392505050565b60008060007f7fffffffffffffffffffffffffffffff5d576e7357a4501ddfe92f46681b20a08460001c11156108525760006003859250925092506108fc565b6000600188888888604051600081526020016040526040516108779493929190611248565b6020604051602081039080840390855afa158015610899573d6000803e3d6000fd5b505050602060405103519050600073ffffffffffffffffffffffffffffffffffffffff168173ffffffffffffffffffffffffffffffffffffffff16036108ed57600060016000801b935093509350506108fc565b8060008060001b935093509350505b9450945094915050565b6000604051905090565b600080fd5b600080fd5b60007fffffffff0000000000000000000000000000000000000000000000000000000082169050919050565b61094f8161091a565b811461095a57600080fd5b50565b60008135905061096c81610946565b92915050565b60006020828403121561098857610987610910565b5b60006109968482850161095d565b91505092915050565b60008115159050919050565b6109b48161099f565b82525050565b60006020820190506109cf60008301846109ab565b92915050565b6000819050919050565b6109e8816109d5565b81146109f357600080fd5b50565b600081359050610a05816109df565b92915050565b600080fd5b600080fd5b6000601f19601f8301169050919050565b7f4e487b7100000000000000000000000000000000000000000000000000000000600052604160045260246000fd5b610a5e82610a15565b810181811067ffffffffffffffff82111715610a7d57610a7c610a26565b5b80604052505050565b6000610a90610906565b9050610a9c8282610a55565b919050565b600067ffffffffffffffff821115610abc57610abb610a26565b5b610ac582610a15565b9050602081019050919050565b82818337600083830152505050565b6000610af4610aef84610aa1565b610a86565b905082815260208101848484011115610b1057610b0f610a10565b5b610b1b848285610ad2565b509392505050565b600082601f830112610b3857610b37610a0b565b5b8135610b48848260208601610ae1565b91505092915050565b60008060408385031215610b6857610b67610910565b5b6000610b76858286016109f6565b925050602083013567ffffffffffffffff811115610b9757610b96610915565b5b610ba385828601610b23565b9150509250929050565b610bb68161091a565b82525050565b6000602082019050610bd16000830184610bad565b92915050565b600073ffffffffffffffffffffffffffffffffffffffff82169050919050565b6000610c0282610bd7565b9050919050565b610c1281610bf7565b82525050565b6000602082019050610c2d6000830184610c09565b92915050565b610c3c81610bf7565b8114610c4757600080fd5b50565b600081359050610c5981610c33565b92915050565b6000819050919050565b610c7281610c5f565b8114610c7d57600080fd5b50565b600081359050610c8f81610c69565b92915050565b600080fd5b600080fd5b60008083601f840112610cb557610cb4610a0b565b5b8235905067ffffffffffffffff811115610cd257610cd1610c95565b5b602083019150836001820283011115610cee57610ced610c9a565b5b9250929050565b60008060008060608587031215610d0f57610d0e610910565b5b6000610d1d87828801610c4a565b9450506020610d2e87828801610c80565b935050604085013567ffffffffffffffff811115610d4f57610d4e610915565b5b610d5b87828801610c9f565b925092505092959194509250565b600081519050919050565b600082825260208201905092915050565b60005b83811015610da3578082015181840152602081019050610d88565b60008484015250505050565b6000610dba82610d69565b610dc48185610d74565b9350610dd4818560208601610d85565b610ddd81610a15565b840191505092915050565b60006020820190508181036000830152610e028184610daf565b905092915050565b610e1381610c5f565b82525050565b6000602082019050610e2e6000830184610e0a565b92915050565b6000606082019050610e496000830186610e0a565b610e566020830185610c09565b610e636040830184610e0a565b949350505050565b600081519050610e7a81610c69565b92915050565b600081519050610e8f81610c33565b92915050565b600080600060608486031215610eae57610ead610910565b5b6000610ebc86828701610e6b565b9350506020610ecd86828701610e80565b9250506040610ede86828701610e6b565b9150509250925092565b600060208284031215610efe57610efd610910565b5b6000610f0c84828501610e80565b91505092915050565b600082825260208201905092915050565b7f4e6f7420746f6b656e206f776e65720000000000000000000000000000000000600082015250565b6000610f5c600f83610f15565b9150610f6782610f26565b602082019050919050565b60006020820190508181036000830152610f8b81610f4f565b9050919050565b7f4e487b7100000000000000000000000000000000000000000000000000000000600052601160045260246000fd5b6000610fcc82610c5f565b91507fffffffffffffffffffffffffffffffffffffffffffffffffffffffffffffffff8203610ffe57610ffd610f92565b5b600182019050919050565b60006110158385610d74565b9350611022838584610ad2565b61102b83610a15565b840190509392505050565b60006020820190508181036000830152611051818486611009565b90509392505050565b600081905092915050565b6000611071838561105a565b935061107e838584610ad2565b82840190509392505050565b6000611097828486611065565b91508190509392505050565b7f4e487b7100000000000000000000000000000000000000000000000000000000600052602160045260246000fd5b60006110dd82610bd7565b9050919050565b6110ed816110d2565b81146110f857600080fd5b50565b60008151905061110a816110e4565b92915050565b60008060006060848603121561112957611128610910565b5b600061113786828701610e6b565b9350506020611148868287016110fb565b925050604061115986828701610e6b565b9150509250925092565b61116c816109d5565b82525050565b60006040820190506111876000830185611163565b81810360208301526111998184610daf565b90509392505050565b60006111ad82610d69565b6111b7818561105a565b93506111c7818560208601610d85565b80840191505092915050565b60006111df82846111a2565b915081905092915050565b6000815190506111f9816109df565b92915050565b60006020828403121561121557611214610910565b5b6000611223848285016111ea565b91505092915050565b600060ff82169050919050565b6112428161122c565b82525050565b600060808201905061125d6000830187611163565b61126a6020830186611239565b6112776040830185611163565b6112846060830184611163565b9594505050505056fea26469706673582212208cd8839b6fcfe8702689e5efb4a827a9f38bc8d6b2108abe53170a4e3d4bf78464736f6c63430008140033",
  "linkReferences": {},
  "deployedLinkReferences": {}
}